:100948000000F91FF982F9DFFA37FA8AFAD8FB238F
:10095800FB68FBAAFBE9FC24FC5BFC8FFCC1FCEFF9
:10096800FD1BFD45FD6CFD91FDB4FDD5FDF4FE12AA
:10097800FE2DFE48FE60FE78FE86FEA3FEB6FEC98A
:10098800FEDAFFEBFEFAFF09FF17FF24FF30FF3CFA
:10099800FF47FF51FF5BFF64FF6DFF75FF7DFF841D
:1009A800FF8B000400010101030105010601080194
:1009B8000A010C010D0100010D010F0111011201C5
:1009C8001401160118011901000119011B011D016B
:1009D8001E01200122012401250100012501270112
:1009E80029012A012C012E013002000418041804E0
:1009F8001504130415040E0813041504180415042B
:100A080013100004180418041504130415040C0822
:100A1800130415041804130411100004110413041A
:100A2800150418041A0418041604180415041504E7
:100A38001304131000041104130411041104130403
:100A4800110413041304150818041504150C0004E4
:100A5800180418041504130415040E0813041504C7
:100A680018041504131000041804180415041304BA
:100A780015040C08130415041804130411100004B9
:100A880011041304150418041A041804160418048D
:100A9800150415041304130C0C0415081308130487
:040AA8001114FFFF27
:0D13D90001660002620000C1050264000010
:03001B0002189C2C
:10189C00C0E0C083C082C0D075D000C000B2A578B3
:1018AC0066E625E02448F582E43409F583E493F5F3
:1018BC008DE625E02449F582E43409F583E493F5BB
:0C18CC008BD000D0D0D082D083D0E0328E
:0D000E00E47862F608F608F608F6D205223E
:091CFC00C28EC2ABC205D2A522C2
:031D1800A20522FF
:101A180030052AD37865E6940018E69400401E083D
:101A2800E61618700116D37865E6940F18E6940048
:0E1A3800500B7866E66006C28EC2ABD2A522C5
:101335002005030213D8D37865E6940018E69400D7
:1013450040030213D818E625E0FF18E633FE74AA19
:101355002FF58274093EF583E493FD08E625E0FF49
:1013650018E633FE74AB2FF58274093EF583E493DA
:10137500FFBDFF11C28EC2ABD2A5E4F608F6087612
:101385000408761A227866A6057E007C007D231265
:10139500032E7864A60608A60708E67008C28EC262
:1013A500ABD2A580267866E625E02448F582E434AC
:1013B50009F583E493F58DE625E02449F582E434C7
:1013C50009F583E493F58BD28ED2AB786306E618E4
:0313D5007001069E
:0113D80022F2
:101C1D00D2B5121BD550037F00227FCC121C777FCB
:071C2D0044121C777F012225
:10161600E4F514F513F512F511D2B5121BD5405A9F
:101626007FCC121C777FBE121C77121C348F0E12D1
:101636001C34AD07EDFEE50EFBEEF50FEBF510EDF8
:1016460054F8601CE510F4FFE50FF4FEEF2401F5F5
:1016560010E43EF50FC3E49510FDE4950FFC8005FC
:10166600AC0FAD10EC12025BE4FBFA798078411204
:10167600012F8F148E138D128C11AF14AE13AD1271
:02168600AC11A5
:01168800223F
:1013E600043B00000000043F00000000014300042D
:0F13F60044000000000848000000000000000054
:101B8D0074502FF8E6FE5D600CED64016004EDF419
:081B9D005EF67F01227F0022A9
:10197C00AE07EE700920B0037F01227F0022BE016A
:10198C000920B1037F01227F0022BE020920B2038D
:10199C007F01227F0022BE030920B3037F01227F37
:0519AC0000227F002273
:100BEE00E4FDED25E02449F9D3E7940019E79400DC
:100BFE00400DED25E02448F808E616187001160D94
:100C0E00BD04DF784306E6C3940A5003020D1AE4CE
:100C1E00F6FD743B2DF8E6FF743F2DF8A607AF05E1
:100C2E0012197C743B2DF8A607743B2DF8E6B4011F
:100C3E000A74502DF8740146F6800874502DF8741D
:100C4E00FE56F6743B2DF8E6B4010F743F2DF8E610
:100C5E00700874502DF8740246F6743B2DF8E67049
:100C6E0010743F2DF8E6B4010874502DF874044644
:100C7E00F674442DF8E614602614605A24026003BC
:100C8E00020D11743B2DF8E664017077ED25E0241A
:100C9E0048F876030876E874442DF876018064747B
:100CAE003B2DF8E6700A74502DF8740846F6802D28
:100CBE00ED25E02449F9E71947704874502DF87472
:100CCE002046F6ED25E02448F876000876C87444F0
:100CDE002DF87602802D743B2DF8E6700874442DA5
:100CEE00F8E4F6801EED25E02449F9E71947701364
:100CFE0074502DF8744046F6ED25E02448F8760041
:0C0D0E000876C80DED64046003020C20A0
:010D1A0022B6
:0C140500016A0001680001670001690035
:101BA5007590F0E59054F0FFBFF0037F002275902B
:071BB5000FE590540F4FFFF4
:011BBC002206
:100F3C007868E614602714604314700302102524AB
:100F4C00036003021031121BA58F08E50870030221
:100F5C0010317869F6E408F67868760122786A062A
:100F6C00E6C3940A5003021031121BA58F08E50842
:100F7C001866700418760222E402102E7869E612C4
:100F8C0004C60FC2770FC87B0FCE7D0FD47E0FDA4D
:100F9C00B70FE0BB0FE6BD0FECBE0FF2D70FF8DBBF
:100FAC000FFEDD1004DE100AE71010EB1016ED102A
:100FBC001CEE000010207867760180587867760266
:100FCC00805278677603804C786776048046786721
:100FDC007605804078677606803A786776078034A5
:100FEC0078677608802E7867760980287867760A85
:100FFC0080227867760B801C7867760C8016786771
:10100C00760D80107867760E800A7867760F8004EC
:10101C00786776107868760322121BA58F08E5088E
:05102C0070037868F676
:01103100229C
:081D05007867E6FF6002E4F6D6
:011D0D0022B3
:101ADD00E4FDFCC3ED9FEC9E5015E4FBFA0BBB003F
:0F1AED00010AEB64714A70F50DBD00010C80E435
:011AFC0022C7
:101A46007E00121ADD7F38121A597F057E00121A9F
:031A5600DD7F38F9
:101A59007580FFC2A6C2A5008F8000D2A700000032
:091A6900C2A77F027E00021ADD13
:101B74007580FFD2A6C2A5008F8000D2A700000006
:091B8400C2A77F017E00021ADDF8
:101ABB00C2A77F0F121A467F05121A467F0C121A05
:101ACB00597F06121A597F01121A597F0A7E00029A
:021ADB001ADD12
:061910008B0E8A0F891006
:10191600EDBF0106247FF511800424BFF511AF1138
:10192600121A59AB0EAA0FA910120315FF60101256
:0F1936001B7474012510F510E4350FF50F80E4D4
:01194500227F
:021BBD008B1D7E
:101BBF00EDBF0105247FF9800324BFF9AF01121A8D
:061BCF0059AF1D021B745A
:0C1CCF007F01121A597F057E00021ADD09
:100AAC004465736B746F7020546F7900486F6C647D
:100ABC00204B31203373204F4E00456E74657220ED
:100ACC0050617373776F7264005B2020205D005758
:100ADC00726F6E67205077642120200053656C651F
:100AEC0063742046756E6374696F6E3A00313A42D6
:100AFC007269202020323A54656D70202000333A00
:100B0C004D7573696320343A43616C632020003562
:100B1C003A54696D652020363A55415254202000D4
:100B2C004272696768746E6573733A004465736BDF
:100B3C002054656D703A00506C6179696E672E2E89
:100B4C002E0051696E6720487561204369004D7510
:100B5C0073696320456E6400486F6C64204B3220CF
:100B6C0072657475726E0043616C63204D6F6465C1
:100B7C003A205331333D2E00526573756C743A0034
:100B8C004572726F722044697630005379737465C4
:100B9C006D2052756E3A0030303A30303A303000B9
:100BAC0055415254205265636569766572005761F0
:100BBC006974696E67204C696E6B2E2E2E00554140
:100BCC005254204D6F6465205265616479210D0A81
:100BDC00004368617220526563763A205B205D2089
:020BEC002000E7
:10141100012E00C181C100013400032B0000000135
:101421003A00043500000000042F000000000133E1
:1014310000012A00C102013900022100000123003C
:0C14410002240000022600000228000027
:07181E00E6FA08E6FB7F0279
:101825008F0A8D0B8A0C8B0DAE0CAF0D7C007D0ADB
:10183500120340EF2430FBAD0BAF0A121BBDE50BC5
:1018450004FDC005AE0CAF0D7C007D0A120340ED12
:0A1855002430FBD005AF0A021BBDD2
:101590008F0A8D0B8A0C8B0DAE0CAF0D7C037DE892
:1015A000120340EF2430FBAD0BAF0A121BBDAE0C93
:1015B000AF0D7C037DE81203407E007F64CFCDCF6A
:1015C000CECCCE120340EF2430FBE50B04FDAF0A76
:1015D000121BBDAE0CAF0D7C007D641203407E007B
:1015E0007F0ACFCDCFCECCCE120340EF2430FBE527
:1015F0000B2402FDAF0A121BBDE50B2403FDC00541
:10160000AE0CAF0D7C007D0A120340ED2430FBD000
:0616100005AF0A021BBD3C
:040E45008F0E8D0F70
:100E4900E4FFFEFDFCAB13AA12A911A8101201CCF4
:100E5900501E7B2DAD0FAF0E121BBDAF13AE12ADE1
:100E690011AC101202458F138E128D118C1080094E
:100E79007B20AD0FAF0E121BBDE4FFFE7DC87C4287
:100E8900AB13AA12A911A8101200261202948E14EB
:100E99008F157C037DE8120395EF2430FBE50F04E1
:100EA900FDAF0E121BBDAE14AF157C037DE8120316
:100EB900957E007F64CFCDCFCECCCE120395EF24A3
:100EC90030FBE50F2402FDAF0E121BBDE50F240315
:100ED900FD7B2EAF0E121BBDAE14AF157C007D64D9
:100EE9001203957E007F0ACFCDCFCECCCE120395CB
:100EF900EF2430FBE50F2404FDAF0E121BBDE50FF7
:100F09002405FDC005AE14AF157C007D0A120395BA
:100F1900ED2430FBD005AF0E121BBDE50F2406FDF5
:100F29007BDFAF0E121BBDE50F2407FD7B43AF0E20
:030F3900021BBDDB
:0F0D1B001217DA8F108E0F8D0E8C0D7D037F0255
:040D2A008F0B8D0C92
:100D2E00E4F51CAE0FAC0DEC33501EAD0C050C7B78
:100D3E002DAF0B121BBDAF10AE0FAD0EAC0D1204CE
:100D4E00648F108E0F8D0E8C0DE47B0AFAF9F8AFBE
:100D5E0010AE0FAD0EAC0D1217DAEB2430F511E418
:100D6E007B0AFAF9F8AF10AE0FAD0EAC0D1217DA12
:100D7E00E47B0AFAF9F81217DAEB2430F512E47B69
:100D8E0064FAF9F8AF10AE0FAD0EAC0D1217DAE42F
:100D9E007B0AFAF9F81217DAEB2430F513AF10AE1E
:100DAE000FAD0EAC0DE47BE87A03F9F81217DA8F6B
:100DBE00108E0F8D0E8C0D751C03E4FFFEFDFCAB2B
:100DCE0010AA0FA90EA80DD3120472403AE47B0AA2
:100DDE00FAF9F8AF10AE0FAD0EAC0D1217DAEB2418
:100DEE0030FFAE1C051C74112EF8A607AF10AE0F07
:100DFE00AD0EAC0DE47B0AFAF9F81217DA8F108EED
:100E0E000F8D0E8C0D80B3151CC3E51C6480948071
:100E1E004024E51CB4010BAD0C050C7B2EAF0B1260
:100E2E001BBDAD0C050C7411251CF8E6FBAF0B12A7
:060E3E001BBD151C80D352
:010E4400228B
:1011070078351204888F108E0F8D0E8C0D7D017F20
:0111170002D5
:041118008F0B8D0CA0
:10111C00E4F51CAF10AE0FAD0EAC0DEC4D4E4F7098
:10112C00097B30AD0CAF0B021BBDAE0FAC0DEC331D
:10113C005018AD0C050C7B2DAF0B121BBDAF10AEB8
:10114C000FAD0EAC0D1204648043E4FFFEFDFCAB4E
:10115C0010AA0FA90EA80DD3120472403AE47B0A10
:10116C00FAF9F8AF10AE0FAD0EAC0D1217DAEB2486
:10117C0030FFAE1C051C74112EF8A607AF10AE0F75
:10118C00AD0EAC0DE47B0AFAF9F81217DA8F108E5B
:10119C000F8D0E8C0D80B3151CC3E51C64809480E0
:1011AC004014AD0C050C7411251CF8E6FBAF0B12AA
:0611BC001BBD151C80E3C1
:0111C200220A
:10194600121AFD7FC87E00121ADDD2AFE4F5097FB8
:10195600057E00121ADD121D057834A6070509E575
:1019660009C3943240E9E47834F6121D057834A6AA
:061976000712103280F49C
:101AFD007590FF7580FFD2B5D2B7D2A5121C8B128F
:0F1B0D001C9E121D137F647E00121ADD021ABB8C
:101032007D02E4FF121B8DEF6006E47821F608F6CC
:101042007D01E4FF121B8DEF60237B007A00792182
:101052007DB87C0B1219E65014782EE670047601E6
:101062008030121CFCD2A5E4782EF68025782EE67C
:10107200D3940240227D207F01121B8DEF700A7DE6
:10108200407F01121B8DEF600E121CFCD2A5782E40
:101092007602D201D20022782EE6B40900505F9087
:1010A20010A8F82828730210C30210E80210EB02FD
:1010B20010EE0210F10210F40210F70210FA021000
:1010C200FD300140C201121CCF7BFF7A0A79AC7D50
:1010D200047F011219107BFF7A0A79B87D027F0220
:1010E200121910021B1C02146F0211C30219B10261
:1010F200168902178F0205BA0217410216F0E47828
:041102002EF6D201F2
:0111060022C6
:10146F00300005C200121CCF300120C201E4783ACF
:10147F00F67BFF7A0A79C67D027F011219107BFF76
:10148F007A0A79D57D067F021219107834E6FF604B
:10149F00631218DC505E783AE6C394035056121864
:1014AF005F783AE6FE242BF8A607EE2407FD7B2A89
:1014BF007F02121BBD783A06E6640370377F907E79
:1014CF0001121ADD782BE6B4011208E6B4020D08FA
:1014DF00E6B40308087602121B1C80147BFF7A0AFD
:1014EF0079DB7D027F021219107FE87E03121ADD6D
:0514FF00D201D2002221
:1011C300300005C200121CCF30013FC2017BFF7A01
:1011D3000A79E87D017F011219107823E614600F64
:1011E3001460142402701F7BFF7A0A79F9800E7B46
:1011F300FF7A0B790A80067BFF7A0B791B7D017FCF
:10120300021219108004E47823F67D087F02121B72
:101213008DEF600E7823E670047602800378231640
:10122300D2017D087F03121B8DEF600F7823E6B494
:101233000204E4F68003782306D2017834E624FE20
:10124300601614601914601C14601F1460222405B6
:101253007026782E7603801C782E76048016782EDE
:1012630076058010782E7606800A782E760780041D
:08127300782E7608D201D200AA
:01127B002250
:1019B100300112C201121CCF7BFF7A0B792C7D03FF
:1019C1007F011219107B007A0079247D2C7C011291
:1019D10019E650107FA4121B3BAA06AB077D067FB8
:0419E1000212159049
:0119E50022DF
:10168900300115C201121CCF7BFF7A0B79387D031B
:101699007F01121910121C1D7B007A0079267DF436
:1016A9007C011219E6503F1216168F0D8E0C8D0B08
:1016B9008C0A8F138E128D118C107D057F02120EEC
:1016C90045121C1DE4FFFE7D207C42AB0DAA0CA92E
:1016D9000BA80A1201CC4007C28EC2ABC2A52212C6
:0616E9001D184002D2A50D
:0116EF0022D8
:10178F00300122C201121CCF7BFF7A0B79437D03FC
:10179F007F011219107BFF7A0B794E7D027F0212A7
:1017AF00191012000E121335121D18401D121CCFE6
:1017BF007BFF7A0B795A7D047F011219107BFF7A18
:0B17CF000B79647D017F0212191022CB
:1005BA00300130C201121CCF7BFF7A0B79737D01A7
:1005CA007F0112191078351204AD00000000782F4F
:1005DA001204AD00000000E47833F6782AF6C2026D
:1005EA007839F67834E67003020947B40D1D782A83
:1005FA00E6FF64016008EF64036003020947D20260
:10060A00E47839F67B2E7D0F020704782AE6146017
:10061A004B1470030207811470030207AF147003AE
:10062A00020940240460030209471218D840030251
:10063A000947121CCF7BFF7A0B79737D017F011268
:10064A00191012185FE4FCFDFE78351204A1C202EB
:10065A00E47839F6121107782A7601221218D8405E
:10066A000302070912185F8F0A20022EE47F0AFE8E
:10067A00FDFC7835120494120415A804A905AA06EB
:10068A00AB07E4FCFDFEEB250AFFEE3AFEED39FD71
:10069A00EC38FC78351204A180437839E6FFC3941C
:1006AA0002503AEF700280077839E6B4012FE47FEE
:1006BA000AFEFDFC7835120494120415A804A90553
:1006CA00AA06AB07E4FCFDFEEB250AFFEE3AFEEDB7
:1006DA0039FDEC38FC78351204A1783906121CCFA2
:1006EA007BFF7A0B79737D017F01121910121107B2
:1006FA002002030209477B647D0E7F02021BBD783C
:10070A0034E6FF64046012EF6408600DEF640C6065
:10071A0008EF6410600302094720020A78351204C0
:10072A0088E47B64800E7839E6B4011378351204C4
:10073A0088E47B0AFAF9F812041578351204A178CC
:10074A0034E6FFB4040318762BEFB4080478337642
:10075A002DEFB40C047833762AEFB410047833768C
:10076A002F7833E6FB7D107F02121BBDC202E478AC
:10077A0039F6782A7602221218D84003020947125B
:10078A00185FE4FCFDFE782F1204A1121CCF7BFF38
:10079A007A0B79737D017F01121910782F121109D2
:1007AA00782A7603221218D8400302085412185FD6
:1007BA008F0A20022EE47F0AFEFDFC782F12049491
:1007CA00120415A804A905AA06AB07E4FCFDFEEB72
:1007DA00250AFFEE3AFEED39FDEC38FC782F1204BB
:1007EA00A180437839E6FFC39402503AEF70028041
:1007FA00077839E6B4012FE47F0AFEFDFC782F1250
:10080A000494120415A804A905AA06AB07E4FCFD82
:10081A00FEEB250AFFEE3AFEED39FDEC38FC782FA7
:10082A001204A1783906121CCF7BFF7A0B79737DEB
:10083A00017F01121910782F1204888F108E0F8DE4
:10084A000E8C0D7D017F020211187834E6640F6068
:10085A000302094720020A782F120488E47B648085
:10086A000E7839E6B40113782F120488E47B0AFA69
:10087A00F9F8120415782F1204A1121CCF7BFF7A03
:10088A000B79847D017F011219107B3D7D017F0266
:10089A00121BBD7833E6B42B1D782F1204887835E5
:1008AA00120494EB2FF510EA3EF50FE93DF50EE838
:1008BA003CF50D120D267833E6B42D22782F12045A
:1008CA0094C0007835120488D000C3EF9BF510EE6F
:1008DA009AF50FED99F50EEC98F50D120D26783371
:1008EA00E6B42A16782F1204887835120494120472
:1008FA0015E47B64FAF9F8120D1B7833E6642F705D
:10090A0030782F120488EC4D4E4F6018E47F64FE55
:10091A00FDFC7835120494120415782F12049412EF
:10092A000D1B800D7BFF7A0B798C7D037F021219D8
:0D093A0010782A7604221218D85002D2013B
:01094700228D
:1017410030011FC201121CCF7BFF7A0B79977D03F9
:101751007F011219107BFF7A0B79A37D047F02129E
:1017610019107B007A0079287DF47C011219E6506A
:101771001C78567D0412181E78607D0712181E7899
:0D17810058E6FA08E6FB7D0A7F02121825E3
:01178E002238
:1016F00030012DC201121CCF7BFF7A0B79AC7D0229
:101700007F011219107BFF7A0B79BA7D017F0212DB
:101710001910D206121CE77BFF7A0B79CA121A72D3
:10172000121C058F0AE50AF460167BFF7A0B79DD3F
:101730007D017F02121910AB0A7D0D7F02121BBDC5
:011740002286
:04185F007834E6FFF4
:10186300BF01037F0122BF02037F0222BF03037F65
:101873000322BF05037F0422BF06037F0522BF07A0
:10188300037F0622BF09037F0722BF0A037F0822C3
:09189300BF0B037F09227F002234
:0418D8007834E6FF7B
:1018DC00EF6401602BEF64026026EF64036021EF7C
:1018EC006405601CEF64066017EF64076012EF6418
:1018FC0009600DEF640A6008EF640B6003BF0E0211
:04190C00D322C322FD
:091CF200007F027E0FDEFEDFFC24
:011CFB0022C6
:04001E007F19DFFE69
:0100220022BB
:041D0E007F02DFFE73
:011D120022AE
:101BD500C2AFC2B7121CF2D2B712001EA2B792064C
:071BE500121CF2D2AFA206B0
:011BEC0022D6
:101CB100C2AFC2B7EF24FF92B712001ED2B7D2AFA4
:011CC1002200
:101C6200C2AFC2B7D2B7121D0EA2B7E433FE120042
:041C72001ED2AFFFD0
:011C7600224B
:021C7700AE07B6
:101C7900E4FDEE5401FF121CB1EEC313FE0DBD08C5
:011C8900F169
:011C8A002237
:101C3400E4FDFCEDC313FD121C62EF600343058059
:061C44000CBC08EFAF0527
:011C4A002277
:10144D00025E00000256000002600000025800001B
:0A145D00045A0000000002540000D1
:101C8B00E58954F04401F589758CFC758A66D2A9F7
:031C9B00D28C22C6
:101C9E00E589540F4410F589758DFC758B66C2ABC2
:031CAE00C28E22C1
:051D1300C2ADC2CA22AE
:03000B0002127C62
:10127C00C0E0C0F0C083C082C0D075D000C000C038
:10128C0001C002C003C004C005C006C007758CFCB9
:10129C00758A66120F3C120BEE121A18785F06E66E
:1012AC0018700106785506E618700106C37855E6E5
:1012BC0094E818E6940340567600087600785A12A3
:1012CC000488EF2401FFE43EFEE43DFDE43CFC78A1
:1012DC005A1204A1785906E618700106C37859E62B
:1012EC00943C18E694004026760008760078610657
:1012FC00E618700106C37861E6943C18E694004049
:10130C000D7600087600785706E618700106D007AF
:10131C00D006D005D004D003D002D001D000D0D05C
:09132C00D082D083D0F0D0E03271
:0B1CDB00C2AF785EE6FE08E6FFD2AF65
:011CE60022DB
:0419E6008C0E8D0FC7
:1019EA00121CDB1203CBFDACF04C7008EE8FF01228
:1019FA0003F6C322C3EF9DFDEE9CFCC3ED950FECED
:0D1A0A00950E4008EE8FF01203F6D322C3B4
:011A170022AC
:101B1C00E47856F608F67860F608F67858F608F683
:0F1B2C00081204AD00000000E47854F608F62219
:07146700011E00C104C103D6
:101BED00759850E589540F4420F589758DFD758BD9
:081BFD00FDD28ED2ACD2AF2262
:080003008F993099FDC299228A
:101A72008B0B8A0C890DAB0BAA0CA90D12031560F6
:101A820013050DE50D7002050C14F9120315FF1272
:051A9200000380E222C8
:0C1CC200300407781EE6FFC204227FFFFA
:011CCE0022F3
:03002300021C4B71
:101C4B00C0D075D000C000309808C298781EA699F5
:071C5B00D204D000D0D0320A
:0B1CE700A2069203300603121BED2240
:101C05002003037FFF22121CC2AE07EEF46006EE2E
:071C150004FF120003AF06FB
:011C1C0022A5
:101B5800C2B6E4FEEFC4131313540124FF92B4EF8A
:0B1B680025E0FFC2B6D2B60EBE08E9B1
:011B7300224F
:101A9700E4FFFEC2B6FDFCEF25E0FFEE33FED2B653
:101AA700C2B6A2B7E43342070DBD00010CED640CCA
:031AB7004C70E48C
:011ABA002209
:101B3B00D2B7C2B6C2B5121B587F06DFFED2B600B3
:0C1B4B0000C2B60000121A97D2B5D2B743
:011B5700226B
:10002600EC4D6011E8497017ED33EC3304600DE4D4
:10003600FCFFFEFD22E933E8330470F802030012E8
:1000460002CB58046009E4CC2481500628500902EA
:10005600030A284003020307C0E0EB4A7044B98054
:1000660006D0E0FB0202F6EF4E701CBD8008EBFFE7
:10007600EAFEE9FD80EBE98DF0A4FEE5F002010F52
:10008600E9CDF9EAFEEBFFEF89F0A4FCE5F0CE89B5
:10009600F0A42EFFE435F0CD89F0A42DFEE435F072
:1000A6008067EF4E7005BD80D780C3EF8BF0A4ACA0
:1000B600F0EE8BF0A42CFCE435F0F8EF8AF0A42CDB
:1000C600E5F038FCE433CB8DF0A42CFCE5F03BF8EE
:1000D600EE8AF0A42CFCE5F038F8E433CF89F0A4DE
:1000E6002CFCE5F038CF3400CE89F0A42FFFE5F0E4
:1000F6003EFEE433C98DF0A42EFEE5F039CD8AF03C
:10010600A42FFFE5F03EFEE43DFD33D0E0FB5007B3
:100116000BBB000F02030AEC2CFCEF33FFEE33FEA1
:06012600ED33FD0202E2D0
:10012C0002030AEC5D046005E85904700302030045
:10013C001202CB580460F6EC4860F2EC7004FDFE41
:10014C00FF22C860DB2481C85009C39860025006A6
:10015C000203079850CAF582E9294B4A7005AB8215
:10016C000202F675F0007C1A7880C3EF9BEE9AEDD4
:10017C0099400DC3EF9BFFEE9AFEED99FDE842F01E
:10018C00DC23ACF0D0E0FFD0E0FED0E0FDAB822071
:10019C00E7101BEB60BAEC2CFCEF33FFEE33FEEDFB
:1001AC0033FD0202E2E803F830E705C0F075F00019
:1001BC00EF2FFFEE33FEED33FD40B830E7C280AADF
:1001CC0074F8CC6480CCC86480C8F58204604FC3DA
:1001DC00EB9FF5F0EA9E42F0E99D42F0E89C45F079
:1001EC00603C501DE5825FFFE582D313CB5BCBF403
:1001FC002B5582FB50280ABA002409B9002008802C
:10020C001DE5825BFBE582D313CF5FCFF4C3132FC5
:10021C005582FF50090EBE00050DBD00010CC3EB4D
:10022C009FF5F0EA9E42F0E99D42F0E89C45F060B3
:09023C0007CC4820E701B3EC22D5
:10024500ED33EC33600A047003BD8004ECB2E7FCC7
:010255002286
:1002560075F020800E75F010800575F0087D007E23
:10026600007F003392D530D503120464EC3340107E
:10027600EF33FFEE33FEED33FDEC33FCD5F0ED222C
:0E028600E5F0247EA2D513CC92E7CDCEFF2268
:10029400EDD2E7CD33EC3392D524814006E4FFFE62
:1002A400FDFC22FCE4CFCECDCC24E0501174FF80C1
:1002B400EDC3CC13CCCD13CDCE13CECF13CF04705E
:0702C400F030D5DE020464F6
:1002CB00E9D2E7C933E833F892D5EDD2E7CD33EC79
:0702DB0033FC5002B2D522F2
:1002E200EC30E7100FBF000C0EBE00080DBD00047D
:1002F2000BEB6014A2D5EB13FCED92E7FD2274FF29
:10030200FCFDFEFF22E480F8A2D574FF13FC7D8081
:03031200E480EF95
:03000000021504E2
:0C150400787FE4F6D8FD75816A02154B73
:10031500BB010689828A83E0225002E722BBFE02E6
:09032500E32289828A83E4932219
:10032E00EF8DF0A4A8F0CF8CF0A428CE8DF0A42EE3
:02033E00FE229D
:10034000BC000BBE0029EF8DF084FFADF022E4CCA1
:10035000F875F008EF2FFFEE33FEEC33FCEE9DEC6A
:10036000984005FCEE9DFE0FD5F0E9E4CEFD22EDB0
:10037000F8F5F0EE8420D21CFEADF075F008EF2FFA
:10038000FFED33FD4007985006D5F0F222C398FDEB
:050390000FD5F0EA2288
:10039500C2D5EC30E709B2D5E4C39DFDE49CFCEE83
:1003A50030E715B2D5E4C39FFFE49EFE120340C3B8
:1003B500E49DFDE49CFC800312034030D507C3E4B3
:0603C5009FFFE49EFE22F2
:1003CB00BB010A89828A83E0F5F0A3E022500687FD
:1003DB00F009E71922BBFE07E3F5F009E3192289BF
:0B03EB00828A83E493F5F074019322F2
:1003F600BB010A89828A83F0E5F0A3F0225006F752
:0F04060009A7F01922BBFE06F3E5F009F319224E
:10041500E88FF0A4CC8BF0A42CFCE98EF0A42CFC86
:100425008AF0EDA42CFCEA8EF0A4CDA8F08BF0A404
:100435002DCC3825F0FDE98FF0A42CCD35F0FCEB63
:100445008EF0A4FEA9F0EB8FF0A4CFC5F02ECD3928
:0F045500FEE43CFCEAA42DCE35F0FDE43CFC2295
:1017DA00C2D5E830E70FB2D5E4C39BFBE49AFAE43A
:1017EA0099F9E498F8EC30E717B2D51218101205F7
:1017FA0028E4C39BFBE49AFAE499F9E498F8800395
:10180A0012052830D50DE4C39FFFE49EFEE49DFD3A
:04181A00E49CFC222C
:0E046400C3E49FFFE49EFEE49DFDE49CFC22A9
:10047200EB9FF5F0EA9E42F0E99D42F0EC6480C801
:0604820064809845F022A1
:0C048800E6FC08E6FD08E6FE08E6FF22A0
:0D049400E6FB08E6F908E6FA08E6CBF822D8
:0C04A100ECF608EDF608EEF608EFF62287
:1004AD00D083D082E493F608740193F60874029316
:0904BD00F608740393F67404734D
:1004C600D083D082F8E4937012740193700DA3A3C5
:1004D60093F8740193F5828883E4737402936860D9
:0604E600EFA3A3A380DFD9
:10151000021946E493A3F8E493A34003F68001F292
:1015200008DFF48029E493A3F85407240CC8C333DC
:10153000C4540F4420C8834004F456800146F6DFAB
:10154000E4800B01020408102040809013D9E47E4F
:10155000019360BCA3FF543F30E509541FFEE493A0
:10156000A360010ECF54C025E060A840B8E493A367
:10157000FAE493A3F8E493A3C8C582C8CAC583CA92
:10158000F0A3C8C582C8CAC583CADFE9DEE780BE4A
:01146E00007D
:1004EC0075F008758200EF2FFFEE33FECD33CDCCC7
:1004FC0033CCC58233C5829BED9AEC99E58298404A
:10050C000CF582EE9BFEED9AFDEC99FC0FD5F0D626
:10051C00E4CEFBE4CDFAE4CCF9A88222B800C1B950
:10052C000059BA002DEC8BF084CFCECDFCE5F0CB8E
:10053C00F97818EF2FFFEE33FEED33FDEC33FCEBC7
:10054C0033FB10D703994004EB99FB0FD8E5E4F982
:10055C00FA227818EF2FFFEE33FEED33FDEC33FC6F
:10056C00C933C910D7059BE99A4007EC9BFCE99A63
:10057C00F90FD8E0E4C9FAE4CCFB2275F010EF2FA8
:10058C00FFEE33FEED33FDCC33CCC833C810D707A8
:10059C009BEC9AE899400AED9BFDEC9AFCE899F8E3
:0E05AC000FD5F0DAE4CDFBE4CCFAE4C8F92276
:00000001FF
